{
  "_format": "hh-sol-artifact-1",
  "contractName": "VendingMachine",
  "sourceName": "contracts/VendingMachine.sol",
  "abi": [
    {
      "inputs": [
        {
          "internalType": "address",
          "name": "tokenAddress",
          "type": "address"
        }
      ],
      "stateMutability": "nonpayable",
      "type": "constructor"
    },
    {
      "anonymous": false,
      "inputs": [
        {
          "indexed": false,
          "internalType": "string",
          "name": "item",
          "type": "string"
        },
        {
          "indexed": false,
          "internalType": "uint256",
          "name": "price",
          "type": "uint256"
        }
      ],
      "name": "ItemAdded",
      "type": "event"
    },
    {
      "anonymous": false,
      "inputs": [
        {
          "indexed": false,
          "internalType": "address",
          "name": "buyer",
          "type": "address"
        },
        {
          "indexed": false,
          "internalType": "string",
          "name": "item",
          "type": "string"
        },
        {
          "indexed": false,
          "internalType": "uint256",
          "name": "price",
          "type": "uint256"
        }
      ],
      "name": "ItemPurchased",
      "type": "event"
    },
    {
      "anonymous": false,
      "inputs": [
        {
          "indexed": false,
          "internalType": "string",
          "name": "item",
          "type": "string"
        }
      ],
      "name": "ItemRemoved",
      "type": "event"
    },
    {
      "inputs": [
        {
          "internalType": "string",
          "name": "_item",
          "type": "string"
        },
        {
          "internalType": "uint256",
          "name": "_price",
          "type": "uint256"
        }
      ],
      "name": "addItem",
      "outputs": [],
      "stateMutability": "nonpayable",
      "type": "function"
    },
    {
      "inputs": [],
      "name": "getItems",
      "outputs": [
        {
          "internalType": "string[]",
          "name": "",
          "type": "string[]"
        }
      ],
      "stateMutability": "view",
      "type": "function"
    },
    {
      "inputs": [],
      "name": "getMyBalance",
      "outputs": [
        {
          "internalType": "uint256",
          "name": "",
          "type": "uint256"
        }
      ],
      "stateMutability": "view",
      "type": "function"
    },
    {
      "inputs": [],
      "name": "getMyPurchases",
      "outputs": [
        {
          "internalType": "string[]",
          "name": "",
          "type": "string[]"
        }
      ],
      "stateMutability": "view",
      "type": "function"
    },
    {
      "inputs": [
        {
          "internalType": "address",
          "name": "user",
          "type": "address"
        }
      ],
      "name": "getTokenBalance",
      "outputs": [
        {
          "internalType": "uint256",
          "name": "",
          "type": "uint256"
        }
      ],
      "stateMutability": "view",
      "type": "function"
    },
    {
      "inputs": [
        {
          "internalType": "uint256",
          "name": "",
          "type": "uint256"
        }
      ],
      "name": "itemPrices",
      "outputs": [
        {
          "internalType": "uint256",
          "name": "",
          "type": "uint256"
        }
      ],
      "stateMutability": "view",
      "type": "function"
    },
    {
      "inputs": [
        {
          "internalType": "uint256",
          "name": "",
          "type": "uint256"
        }
      ],
      "name": "items",
      "outputs": [
        {
          "internalType": "string",
          "name": "",
          "type": "string"
        }
      ],
      "stateMutability": "view",
      "type": "function"
    },
    {
      "inputs": [],
      "name": "owner",
      "outputs": [
        {
          "internalType": "address",
          "name": "",
          "type": "address"
        }
      ],
      "stateMutability": "view",
      "type": "function"
    },
    {
      "inputs": [
        {
          "internalType": "uint256",
          "name": "index",
          "type": "uint256"
        }
      ],
      "name": "purchase",
      "outputs": [],
      "stateMutability": "nonpayable",
      "type": "function"
    },
    {
      "inputs": [
        {
          "internalType": "address",
          "name": "",
          "type": "address"
        },
        {
          "internalType": "uint256",
          "name": "",
          "type": "uint256"
        }
      ],
      "name": "purchases",
      "outputs": [
        {
          "internalType": "string",
          "name": "",
          "type": "string"
        }
      ],
      "stateMutability": "view",
      "type": "function"
    },
    {
      "inputs": [
        {
          "internalType": "uint256",
          "name": "index",
          "type": "uint256"
        }
      ],
      "name": "removeItem",
      "outputs": [],
      "stateMutability": "nonpayable",
      "type": "function"
    },
    {
      "inputs": [],
      "name": "token",
      "outputs": [
        {
          "internalType": "contract ICustomToken",
          "name": "",
          "type": "address"
        }
      ],
      "stateMutability": "view",
      "type": "function"
    }
  ],
  "bytecode": "0x608060405234801561001057600080fd5b50604051611ce6380380611ce68339818101604052810190610032919061011c565b336000806101000a81548173ffffffffffffffffffffffffffffffffffffffff021916908373ffffffffffffffffffffffffffffffffffffffff16021790555080600160006101000a81548173ffffffffffffffffffffffffffffffffffffffff021916908373ffffffffffffffffffffffffffffffffffffffff16021790555050610149565b600080fd5b600073ffffffffffffffffffffffffffffffffffffffff82169050919050565b60006100e9826100be565b9050919050565b6100f9816100de565b811461010457600080fd5b50565b600081519050610116816100f0565b92915050565b600060208284031215610132576101316100b9565b5b600061014084828501610107565b91505092915050565b611b8e806101586000396000f3fe608060405234801561001057600080fd5b50600436106100b45760003560e01c80638da5cb5b116100715780638da5cb5b1461018d578063bf91ad9e146101ab578063bfb231d2146101db578063e4a711831461020b578063efef39a114610229578063fc0c546a14610245576100b4565b80633aecd0e3146100b9578063410d59cc146100e95780634c7389091461010757806352d3f8491461012557806362d6bbdf146101555780637132917114610171575b600080fd5b6100d360048036038101906100ce9190610e21565b610263565b6040516100e09190610e67565b60405180910390f35b6100f1610308565b6040516100fe9190610fd4565b60405180910390f35b61010f6103e1565b60405161011c9190610e67565b60405180910390f35b61013f600480360381019061013a9190611022565b610484565b60405161014c91906110ac565b60405180910390f35b61016f600480360381019061016a9190611203565b61053d565b005b61018b6004803603810190610186919061125f565b610666565b005b610195610903565b6040516101a2919061129b565b60405180910390f35b6101c560048036038101906101c0919061125f565b610927565b6040516101d29190610e67565b60405180910390f35b6101f560048036038101906101f0919061125f565b61093f565b60405161020291906110ac565b60405180910390f35b6102136109eb565b6040516102209190610fd4565b60405180910390f35b610243600480360381019061023e919061125f565b610b01565b005b61024d610d2c565b60405161025a9190611315565b60405180910390f35b6000600160009054906101000a900473ffffffffffffffffffffffffffffffffffffffff1673ffffffffffffffffffffffffffffffffffffffff166370a08231836040518263ffffffff1660e01b81526004016102c0919061129b565b602060405180830381865afa1580156102dd573d6000803e3d6000fd5b505050506040513d601f19601f820116820180604052508101906103019190611345565b9050919050565b60606002805480602002602001604051908101604052809291908181526020016000905b828210156103d857838290600052602060002001805461034b906113a1565b80601f0160208091040260200160405190810160405280929190818152602001828054610377906113a1565b80156103c45780601f10610399576101008083540402835291602001916103c4565b820191906000526020600020905b8154815290600101906020018083116103a757829003601f168201915b50505050508152602001906001019061032c565b50505050905090565b6000600160009054906101000a900473ffffffffffffffffffffffffffffffffffffffff1673ffffffffffffffffffffffffffffffffffffffff166370a08231336040518263ffffffff1660e01b815260040161043e919061129b565b602060405180830381865afa15801561045b573d6000803e3d6000fd5b505050506040513d601f19601f8201168201806040525081019061047f9190611345565b905090565b600460205281600052604060002081815481106104a057600080fd5b906000526020600020016000915091505080546104bc906113a1565b80601f01602080910402602001604051908101604052809291908181526020018280546104e8906113a1565b80156105355780601f1061050a57610100808354040283529160200191610535565b820191906000526020600020905b81548152906001019060200180831161051857829003601f168201915b505050505081565b60008054906101000a900473ffffffffffffffffffffffffffffffffffffffff1673ffffffffffffffffffffffffffffffffffffffff163373ffffffffffffffffffffffffffffffffffffffff16146105cb576040517f08c379a00000000000000000000000000000000000000000000000000000000081526004016105c29061141e565b60405180910390fd5b6002829080600181540180825580915050600190039060005260206000200160009091909190915090816105ff91906115e0565b508060036000600160028054905061061791906116e1565b8152602001908152602001600020819055507fe4cee8b4b346e9fc68b7e9892799bbd7758269373bcf9da8bcb20e89ade95c1d828260405161065a929190611715565b60405180910390a15050565b60008054906101000a900473ffffffffffffffffffffffffffffffffffffffff1673ffffffffffffffffffffffffffffffffffffffff163373ffffffffffffffffffffffffffffffffffffffff16146106f4576040517f08c379a00000000000000000000000000000000000000000000000000000000081526004016106eb9061141e565b60405180910390fd5b600280549050811061073b576040517f08c379a000000000000000000000000000000000000000000000000000000000815260040161073290611791565b60405180910390fd5b600060028281548110610751576107506117b1565b5b906000526020600020018054610766906113a1565b80601f0160208091040260200160405190810160405280929190818152602001828054610792906113a1565b80156107df5780601f106107b4576101008083540402835291602001916107df565b820191906000526020600020905b8154815290600101906020018083116107c257829003601f168201915b50505050509050600260016002805490506107fa91906116e1565b8154811061080b5761080a6117b1565b5b9060005260206000200160028381548110610829576108286117b1565b5b90600052602060002001908161083f919061180b565b5060036000600160028054905061085691906116e1565b8152602001908152602001600020546003600084815260200190815260200160002081905550600280548061088e5761088d6118f3565b5b6001900381819060005260206000200160006108aa9190610d52565b9055600360006002805490508152602001908152602001600020600090557f9268695eeb6f0d29477617f147c5685e51cefc8bc37e76c4e0ee02570b617610816040516108f791906110ac565b60405180910390a15050565b60008054906101000a900473ffffffffffffffffffffffffffffffffffffffff1681565b60036020528060005260406000206000915090505481565b6002818154811061094f57600080fd5b90600052602060002001600091509050805461096a906113a1565b80601f0160208091040260200160405190810160405280929190818152602001828054610996906113a1565b80156109e35780601f106109b8576101008083540402835291602001916109e3565b820191906000526020600020905b8154815290600101906020018083116109c657829003601f168201915b505050505081565b6060600460003373ffffffffffffffffffffffffffffffffffffffff1673ffffffffffffffffffffffffffffffffffffffff168152602001908152602001600020805480602002602001604051908101604052809291908181526020016000905b82821015610af8578382906000526020600020018054610a6b906113a1565b80601f0160208091040260200160405190810160405280929190818152602001828054610a97906113a1565b8015610ae45780601f10610ab957610100808354040283529160200191610ae4565b820191906000526020600020905b815481529060010190602001808311610ac757829003601f168201915b505050505081526020019060010190610a4c565b50505050905090565b6002805490508110610b48576040517f08c379a0000000000000000000000000000000000000000000000000000000008152600401610b3f9061196e565b60405180910390fd5b600060036000838152602001908152602001600020549050600160009054906101000a900473ffffffffffffffffffffffffffffffffffffffff1673ffffffffffffffffffffffffffffffffffffffff166323b872dd3330846040518463ffffffff1660e01b8152600401610bbf9392919061198e565b6020604051808303816000875af1158015610bde573d6000803e3d6000fd5b505050506040513d601f19601f82011682018060405250810190610c0291906119fd565b610c41576040517f08c379a0000000000000000000000000000000000000000000000000000000008152600401610c3890611a76565b60405180910390fd5b600460003373ffffffffffffffffffffffffffffffffffffffff1673ffffffffffffffffffffffffffffffffffffffff16815260200190815260200160002060028381548110610c9457610c936117b1565b5b90600052602060002001908060018154018082558091505060019003906000526020600020016000909190919091509081610ccf919061180b565b507fb7cdc79e3be573b5b8b9df08b9f1d71b09b7604268bf72602622feb5de87da483360028481548110610d0657610d056117b1565b5b9060005260206000200183604051610d2093929190611b1a565b60405180910390a15050565b600160009054906101000a900473ffffffffffffffffffffffffffffffffffffffff1681565b508054610d5e906113a1565b6000825580601f10610d705750610d8f565b601f016020900490600052602060002090810190610d8e9190610d92565b5b50565b5b80821115610dab576000816000905550600101610d93565b5090565b6000604051905090565b600080fd5b600080fd5b600073ffffffffffffffffffffffffffffffffffffffff82169050919050565b6000610dee82610dc3565b9050919050565b610dfe81610de3565b8114610e0957600080fd5b50565b600081359050610e1b81610df5565b92915050565b600060208284031215610e3757610e36610db9565b5b6000610e4584828501610e0c565b91505092915050565b6000819050919050565b610e6181610e4e565b82525050565b6000602082019050610e7c6000830184610e58565b92915050565b600081519050919050565b600082825260208201905092915050565b6000819050602082019050919050565b600081519050919050565b600082825260208201905092915050565b60005b83811015610ee8578082015181840152602081019050610ecd565b60008484015250505050565b6000601f19601f8301169050919050565b6000610f1082610eae565b610f1a8185610eb9565b9350610f2a818560208601610eca565b610f3381610ef4565b840191505092915050565b6000610f4a8383610f05565b905092915050565b6000602082019050919050565b6000610f6a82610e82565b610f748185610e8d565b935083602082028501610f8685610e9e565b8060005b85811015610fc25784840389528151610fa38582610f3e565b9450610fae83610f52565b925060208a01995050600181019050610f8a565b50829750879550505050505092915050565b60006020820190508181036000830152610fee8184610f5f565b905092915050565b610fff81610e4e565b811461100a57600080fd5b50565b60008135905061101c81610ff6565b92915050565b6000806040838503121561103957611038610db9565b5b600061104785828601610e0c565b92505060206110588582860161100d565b9150509250929050565b600082825260208201905092915050565b600061107e82610eae565b6110888185611062565b9350611098818560208601610eca565b6110a181610ef4565b840191505092915050565b600060208201905081810360008301526110c68184611073565b905092915050565b600080fd5b600080fd5b7f4e487b7100000000000000000000000000000000000000000000000000000000600052604160045260246000fd5b61111082610ef4565b810181811067ffffffffffffffff8211171561112f5761112e6110d8565b5b80604052505050565b6000611142610daf565b905061114e8282611107565b919050565b600067ffffffffffffffff82111561116e5761116d6110d8565b5b61117782610ef4565b9050602081019050919050565b82818337600083830152505050565b60006111a66111a184611153565b611138565b9050828152602081018484840111156111c2576111c16110d3565b5b6111cd848285611184565b509392505050565b600082601f8301126111ea576111e96110ce565b5b81356111fa848260208601611193565b91505092915050565b6000806040838503121561121a57611219610db9565b5b600083013567ffffffffffffffff81111561123857611237610dbe565b5b611244858286016111d5565b92505060206112558582860161100d565b9150509250929050565b60006020828403121561127557611274610db9565b5b60006112838482850161100d565b91505092915050565b61129581610de3565b82525050565b60006020820190506112b0600083018461128c565b92915050565b6000819050919050565b60006112db6112d66112d184610dc3565b6112b6565b610dc3565b9050919050565b60006112ed826112c0565b9050919050565b60006112ff826112e2565b9050919050565b61130f816112f4565b82525050565b600060208201905061132a6000830184611306565b92915050565b60008151905061133f81610ff6565b92915050565b60006020828403121561135b5761135a610db9565b5b600061136984828501611330565b91505092915050565b7f4e487b7100000000000000000000000000000000000000000000000000000000600052602260045260246000fd5b600060028204905060018216806113b957607f821691505b6020821081036113cc576113cb611372565b5b50919050565b7f4f6e6c79206f776e657200000000000000000000000000000000000000000000600082015250565b6000611408600a83611062565b9150611413826113d2565b602082019050919050565b60006020820190508181036000830152611437816113fb565b9050919050565b60008190508160005260206000209050919050565b60006020601f8301049050919050565b600082821b905092915050565b6000600883026114a07fffffffffffffffffffffffffffffffffffffffffffffffffffffffffffffffff82611463565b6114aa8683611463565b95508019841693508086168417925050509392505050565b60006114dd6114d86114d384610e4e565b6112b6565b610e4e565b9050919050565b6000819050919050565b6114f7836114c2565b61150b611503826114e4565b848454611470565b825550505050565b600090565b611520611513565b61152b8184846114ee565b505050565b5b8181101561154f57611544600082611518565b600181019050611531565b5050565b601f821115611594576115658161143e565b61156e84611453565b8101602085101561157d578190505b61159161158985611453565b830182611530565b50505b505050565b600082821c905092915050565b60006115b760001984600802611599565b1980831691505092915050565b60006115d083836115a6565b9150826002028217905092915050565b6115e982610eae565b67ffffffffffffffff811115611602576116016110d8565b5b61160c82546113a1565b611617828285611553565b600060209050601f83116001811461164a5760008415611638578287015190505b61164285826115c4565b8655506116aa565b601f1984166116588661143e565b60005b828110156116805784890151825560018201915060208501945060208101905061165b565b8683101561169d5784890151611699601f8916826115a6565b8355505b6001600288020188555050505b505050505050565b7f4e487b7100000000000000000000000000000000000000000000000000000000600052601160045260246000fd5b60006116ec82610e4e565b91506116f783610e4e565b925082820390508181111561170f5761170e6116b2565b5b92915050565b6000604082019050818103600083015261172f8185611073565b905061173e6020830184610e58565b9392505050565b7f496e76616c696420696e64657800000000000000000000000000000000000000600082015250565b600061177b600d83611062565b915061178682611745565b602082019050919050565b600060208201905081810360008301526117aa8161176e565b9050919050565b7f4e487b7100000000000000000000000000000000000000000000000000000000600052603260045260246000fd5b6000815490506117ef816113a1565b9050919050565b60008190508160005260206000209050919050565b8181036118195750506118f1565b611822826117e0565b67ffffffffffffffff81111561183b5761183a6110d8565b5b61184582546113a1565b611850828285611553565b6000601f83116001811461187f576000841561186d578287015490505b61187785826115c4565b8655506118ea565b601f19841661188d876117f6565b96506118988661143e565b60005b828110156118c05784890154825560018201915060018501945060208101905061189b565b868310156118dd57848901546118d9601f8916826115a6565b8355505b6001600288020188555050505b5050505050505b565b7f4e487b7100000000000000000000000000000000000000000000000000000000600052603160045260246000fd5b7f496e76616c6964206974656d0000000000000000000000000000000000000000600082015250565b6000611958600c83611062565b915061196382611922565b602082019050919050565b600060208201905081810360008301526119878161194b565b9050919050565b60006060820190506119a3600083018661128c565b6119b0602083018561128c565b6119bd6040830184610e58565b949350505050565b60008115159050919050565b6119da816119c5565b81146119e557600080fd5b50565b6000815190506119f7816119d1565b92915050565b600060208284031215611a1357611a12610db9565b5b6000611a21848285016119e8565b91505092915050565b7f5472616e73666572206661696c65640000000000000000000000000000000000600082015250565b6000611a60600f83611062565b9150611a6b82611a2a565b602082019050919050565b60006020820190508181036000830152611a8f81611a53565b9050919050565b60008154611aa3816113a1565b611aad8186611062565b94506001821660008114611ac85760018114611ade57611b11565b60ff198316865281151560200286019350611b11565b611ae78561143e565b60005b83811015611b0957815481890152600182019150602081019050611aea565b808801955050505b50505092915050565b6000606082019050611b2f600083018661128c565b8181036020830152611b418185611a96565b9050611b506040830184610e58565b94935050505056fea26469706673582212203af8c98e56552b98e25feee5fc08edbabed41e1c6827d7579a077746dac4c2c664736f6c634300081c0033",
  "linkReferences": {},
  "deployedLinkReferences": {}
}